:1000000000308A000428000083168E158312A50193
:1000100007309F0083131F308305A101A201A301B4
:10002000A401003083168500FF3086000614831279
:10003000061C1C2883161628831606148312061C19
:100040007728A00183160614831206182228831627
:1000500006168312061E2E280130A0078316861569
:100060008312861D35280230A007831606158312D9
:10007000061D3C280430A007831686148312861CB4
:1000800043280830A0072130250784008313200867
:100090008000A50A2508033C03187728A50121083C
:1000A0000B3C031D6128220B61282308023C031D21
:1000B00061282408033C031D61288316051183125F
:1000C000051521080B3C031D73282208033C031D62
:1000D00073282308023C031D7328240B73288316FE
:1000E000051183120511A101A201A301A4011C287D
:0200F0006300AB
:02400E00103F61
:00000001FF
;PIC16F628A
;CRC=374B  CREATED="29-Ara-20 21:36"
